{
  "_format": "hh-sol-artifact-1",
  "contractName": "ETNMarketplace",
  "sourceName": "contracts/ETNMarketplace.sol",
  "abi": [
    {
      "inputs": [],
      "stateMutability": "nonpayable",
      "type": "constructor"
    },
    {
      "anonymous": false,
      "inputs": [
        {
          "indexed": false,
          "internalType": "uint256",
          "name": "id",
          "type": "uint256"
        },
        {
          "indexed": false,
          "internalType": "address",
          "name": "seller",
          "type": "address"
        },
        {
          "indexed": false,
          "internalType": "string",
          "name": "name",
          "type": "string"
        },
        {
          "indexed": false,
          "internalType": "uint256",
          "name": "price",
          "type": "uint256"
        }
      ],
      "name": "ProductListed",
      "type": "event"
    },
    {
      "anonymous": false,
      "inputs": [
        {
          "indexed": false,
          "internalType": "uint256",
          "name": "id",
          "type": "uint256"
        },
        {
          "indexed": false,
          "internalType": "address",
          "name": "buyer",
          "type": "address"
        },
        {
          "indexed": false,
          "internalType": "uint256",
          "name": "price",
          "type": "uint256"
        }
      ],
      "name": "ProductPurchased",
      "type": "event"
    },
    {
      "inputs": [
        {
          "internalType": "string",
          "name": "_name",
          "type": "string"
        },
        {
          "internalType": "string",
          "name": "_description",
          "type": "string"
        },
        {
          "internalType": "uint256",
          "name": "_price",
          "type": "uint256"
        }
      ],
      "name": "listProduct",
      "outputs": [],
      "stateMutability": "nonpayable",
      "type": "function"
    },
    {
      "inputs": [],
      "name": "owner",
      "outputs": [
        {
          "internalType": "address",
          "name": "",
          "type": "address"
        }
      ],
      "stateMutability": "view",
      "type": "function"
    },
    {
      "inputs": [],
      "name": "productCount",
      "outputs": [
        {
          "internalType": "uint256",
          "name": "",
          "type": "uint256"
        }
      ],
      "stateMutability": "view",
      "type": "function"
    },
    {
      "inputs": [
        {
          "internalType": "uint256",
          "name": "",
          "type": "uint256"
        }
      ],
      "name": "products",
      "outputs": [
        {
          "internalType": "uint256",
          "name": "id",
          "type": "uint256"
        },
        {
          "internalType": "address payable",
          "name": "seller",
          "type": "address"
        },
        {
          "internalType": "string",
          "name": "name",
          "type": "string"
        },
        {
          "internalType": "string",
          "name": "description",
          "type": "string"
        },
        {
          "internalType": "uint256",
          "name": "price",
          "type": "uint256"
        },
        {
          "internalType": "bool",
          "name": "isSold",
          "type": "bool"
        }
      ],
      "stateMutability": "view",
      "type": "function"
    },
    {
      "inputs": [
        {
          "internalType": "uint256",
          "name": "_id",
          "type": "uint256"
        }
      ],
      "name": "purchaseProduct",
      "outputs": [],
      "stateMutability": "payable",
      "type": "function"
    }
  ],
  "bytecode": "0x6080604052348015600f57600080fd5b50336000806101000a81548173ffffffffffffffffffffffffffffffffffffffff021916908373ffffffffffffffffffffffffffffffffffffffff160217905550610ffe8061005f6000396000f3fe60806040526004361061004a5760003560e01c806338e76a031461004f5780636d6b77771461006b5780637acc0b20146100945780638da5cb5b146100d6578063e0f6ef8714610101575b600080fd5b61006960048036038101906100649190610692565b61012c565b005b34801561007757600080fd5b50610092600480360381019061008d9190610805565b6102ff565b005b3480156100a057600080fd5b506100bb60048036038101906100b69190610692565b6104a5565b6040516100cd9695949392919061097a565b60405180910390f35b3480156100e257600080fd5b506100eb61061e565b6040516100f89190610a0a565b60405180910390f35b34801561010d57600080fd5b50610116610642565b6040516101239190610a25565b60405180910390f35b60006001600083815260200190815260200160002090506000816000015411801561015d5750600254816000015411155b61019c576040517f08c379a000000000000000000000000000000000000000000000000000000000815260040161019390610a8c565b60405180910390fd5b806004015434146101e2576040517f08c379a00000000000000000000000000000000000000000000000000000000081526004016101d990610af8565b60405180910390fd5b8060050160009054906101000a900460ff1615610234576040517f08c379a000000000000000000000000000000000000000000000000000000000815260040161022b90610b64565b60405180910390fd5b8060010160009054906101000a900473ffffffffffffffffffffffffffffffffffffffff1673ffffffffffffffffffffffffffffffffffffffff166108fc349081150290604051600060405180830381858888f1935050505015801561029e573d6000803e3d6000fd5b5060018160050160006101000a81548160ff0219169083151502179055507fa530f889d7f1bd9a73028e48944ca013ab2c6624a31e3fa26f923f4bb719abd5823383600401546040516102f393929190610b84565b60405180910390a15050565b60008111610342576040517f08c379a000000000000000000000000000000000000000000000000000000000815260040161033990610c07565b60405180910390fd5b6002600081548092919061035590610c56565b91905055506040518060c0016040528060025481526020013373ffffffffffffffffffffffffffffffffffffffff168152602001848152602001838152602001828152602001600015158152506001600060025481526020019081526020016000206000820151816000015560208201518160010160006101000a81548173ffffffffffffffffffffffffffffffffffffffff021916908373ffffffffffffffffffffffffffffffffffffffff160217905550604082015181600201908161041d9190610eaa565b5060608201518160030190816104339190610eaa565b506080820151816004015560a08201518160050160006101000a81548160ff0219169083151502179055509050507f899c32fbd27a24397979837f3acd7bfee4a37ee60b2d2f1a0643a725f39a7a496002543385846040516104989493929190610f7c565b60405180910390a1505050565b60016020528060005260406000206000915090508060000154908060010160009054906101000a900473ffffffffffffffffffffffffffffffffffffffff16908060020180546104f490610ccd565b80601f016020809104026020016040519081016040528092919081815260200182805461052090610ccd565b801561056d5780601f106105425761010080835404028352916020019161056d565b820191906000526020600020905b81548152906001019060200180831161055057829003601f168201915b50505050509080600301805461058290610ccd565b80601f01602080910402602001604051908101604052809291908181526020018280546105ae90610ccd565b80156105fb5780601f106105d0576101008083540402835291602001916105fb565b820191906000526020600020905b8154815290600101906020018083116105de57829003601f168201915b5050505050908060040154908060050160009054906101000a900460ff16905086565b60008054906101000a900473ffffffffffffffffffffffffffffffffffffffff1681565b60025481565b6000604051905090565b600080fd5b600080fd5b6000819050919050565b61066f8161065c565b811461067a57600080fd5b50565b60008135905061068c81610666565b92915050565b6000602082840312156106a8576106a7610652565b5b60006106b68482850161067d565b91505092915050565b600080fd5b600080fd5b6000601f19601f8301169050919050565b7f4e487b7100000000000000000000000000000000000000000000000000000000600052604160045260246000fd5b610712826106c9565b810181811067ffffffffffffffff82111715610731576107306106da565b5b80604052505050565b6000610744610648565b90506107508282610709565b919050565b600067ffffffffffffffff8211156107705761076f6106da565b5b610779826106c9565b9050602081019050919050565b82818337600083830152505050565b60006107a86107a384610755565b61073a565b9050828152602081018484840111156107c4576107c36106c4565b5b6107cf848285610786565b509392505050565b600082601f8301126107ec576107eb6106bf565b5b81356107fc848260208601610795565b91505092915050565b60008060006060848603121561081e5761081d610652565b5b600084013567ffffffffffffffff81111561083c5761083b610657565b5b610848868287016107d7565b935050602084013567ffffffffffffffff81111561086957610868610657565b5b610875868287016107d7565b92505060406108868682870161067d565b9150509250925092565b6108998161065c565b82525050565b600073ffffffffffffffffffffffffffffffffffffffff82169050919050565b60006108ca8261089f565b9050919050565b6108da816108bf565b82525050565b600081519050919050565b600082825260208201905092915050565b60005b8381101561091a5780820151818401526020810190506108ff565b60008484015250505050565b6000610931826108e0565b61093b81856108eb565b935061094b8185602086016108fc565b610954816106c9565b840191505092915050565b60008115159050919050565b6109748161095f565b82525050565b600060c08201905061098f6000830189610890565b61099c60208301886108d1565b81810360408301526109ae8187610926565b905081810360608301526109c28186610926565b90506109d16080830185610890565b6109de60a083018461096b565b979650505050505050565b60006109f48261089f565b9050919050565b610a04816109e9565b82525050565b6000602082019050610a1f60008301846109fb565b92915050565b6000602082019050610a3a6000830184610890565b92915050565b7f496e76616c69642070726f647563742049440000000000000000000000000000600082015250565b6000610a766012836108eb565b9150610a8182610a40565b602082019050919050565b60006020820190508181036000830152610aa581610a69565b9050919050565b7f496e636f72726563742070726963652073656e74000000000000000000000000600082015250565b6000610ae26014836108eb565b9150610aed82610aac565b602082019050919050565b60006020820190508181036000830152610b1181610ad5565b9050919050565b7f50726f6475637420616c726561647920736f6c64000000000000000000000000600082015250565b6000610b4e6014836108eb565b9150610b5982610b18565b602082019050919050565b60006020820190508181036000830152610b7d81610b41565b9050919050565b6000606082019050610b996000830186610890565b610ba660208301856109fb565b610bb36040830184610890565b949350505050565b7f5072696365206d7573742062652067726561746572207468616e207a65726f00600082015250565b6000610bf1601f836108eb565b9150610bfc82610bbb565b602082019050919050565b60006020820190508181036000830152610c2081610be4565b9050919050565b7f4e487b7100000000000000000000000000000000000000000000000000000000600052601160045260246000fd5b6000610c618261065c565b91507fffffffffffffffffffffffffffffffffffffffffffffffffffffffffffffffff8203610c9357610c92610c27565b5b600182019050919050565b7f4e487b7100000000000000000000000000000000000000000000000000000000600052602260045260246000fd5b60006002820490506001821680610ce557607f821691505b602082108103610cf857610cf7610c9e565b5b50919050565b60008190508160005260206000209050919050565b60006020601f8301049050919050565b600082821b905092915050565b600060088302610d607fffffffffffffffffffffffffffffffffffffffffffffffffffffffffffffffff82610d23565b610d6a8683610d23565b95508019841693508086168417925050509392505050565b6000819050919050565b6000610da7610da2610d9d8461065c565b610d82565b61065c565b9050919050565b6000819050919050565b610dc183610d8c565b610dd5610dcd82610dae565b848454610d30565b825550505050565b600090565b610dea610ddd565b610df5818484610db8565b505050565b5b81811015610e1957610e0e600082610de2565b600181019050610dfb565b5050565b601f821115610e5e57610e2f81610cfe565b610e3884610d13565b81016020851015610e47578190505b610e5b610e5385610d13565b830182610dfa565b50505b505050565b600082821c905092915050565b6000610e8160001984600802610e63565b1980831691505092915050565b6000610e9a8383610e70565b9150826002028217905092915050565b610eb3826108e0565b67ffffffffffffffff811115610ecc57610ecb6106da565b5b610ed68254610ccd565b610ee1828285610e1d565b600060209050601f831160018114610f145760008415610f02578287015190505b610f0c8582610e8e565b865550610f74565b601f198416610f2286610cfe565b60005b82811015610f4a57848901518255600182019150602085019450602081019050610f25565b86831015610f675784890151610f63601f891682610e70565b8355505b6001600288020188555050505b505050505050565b6000608082019050610f916000830187610890565b610f9e60208301866109fb565b8181036040830152610fb08185610926565b9050610fbf6060830184610890565b9594505050505056fea2646970667358221220133923542d77827f8c9ebebee03a530249c14d0158c2883b43c3a9eb91a70b1864736f6c634300081c0033",
  "linkReferences": {},
  "deployedLinkReferences": {}
}